:100000001CC0C6C18EC1C4C1C3C173C1C1C1C0C1FE
:10001000BFC1BEC1BDC139C0BBC153C1B9C1B8C1E7
:10002000B7C1B6C1B5C1B4C1B3C1B2C1B1C1B0C12C
:10003000AFC1AEC101000103800011241FBECFEF8C
:10004000D4E0DEBFCDBFE4E3F0E040E017C0B591FF
:10005000A59135912591059107FD0CC0959185914C
:10006000EF01F92FE82F05900D92A217B307D9F7EA
:10007000FE0104C01D92A217B307E1F7E933F407AC
:0A00800031F7E6D078C1F894FFCF05
:10008A001F920F920FB60F9211242F933F934F9303
:10009A005F936F937F938F939F93AF93BF93EF93E6
:1000AA00FF9388E18093810010926F008091010193
:1000BA00882311F0499B17D080910001882311F001
:1000CA004C9B43D0FF91EF91BF91AF919F918F913C
:1000DA007F916F915F914F913F912F910F900FBE3A
:0600EA000F901F90189515
:1000F000809102018F778093020118B88FE097E218
:100100000197F1F700C0000080E288B9EFE2F5E75F
:100110003197F1F700C0000018B88FE295E701971A
:10012000F1F700C0000082E088B9EFE3FCE9319705
:10013000F1F700C0000093E098B9EFE2F5E73197DE
:10014000F1F700C0000088B91092010181E08093AE
:04015000000108950D
:10015400809102018B7F8093020182E088B9EFE0F5
:10016400F7E23197F1F700C0000092E298B9EFE2AC
:10017400F5E73197F1F700C0000088B9FFEB2AEDED
:1001840030E0F15020403040E1F700C0000096E03C
:1001940098B9EFE2F5E73197F1F700C0000088B9AC
:0C01A40081E08093010110920001089599
:1001B000809102018F7D8093020182E088B9EFE097
:1001C000F7E23197F1F700C0000092E298B9EFE250
:1001D000F5E73197F1F700C0000088B9FFEB2AED91
:1001E00030E0F15020403040E1F700C0000093E0E3
:1001F00098B9EFE2F5E73197F1F700C0000088B950
:0A0200001092010110920001089510
:10020A00F8948FEF8BB91AB892EC98B987B985B977
:10021A0092E094B915BE84E0809369009DBB109268
:10022A006E0010926F001092700010926B00109284
:10023A006C0097EF90936D008093680010BE109247
:06024A00640078940895A1
:10025000DCDF1ED088B18F7E88B91899FECF88B1B7
:10026000806188B98091020180FF02C070D0FACF0E
:1002700082FF02C06FDFF6CF85FF02C099DFF2CFA9
:10028000882314F435DFEECF86FFECCF7BD0EACFA6
:1002900010926F00109285001092840080E09FEF12
:1002A000909387008093860082E19AE7909389007B
:1002B0008093880082EC8093800088E180938100A5
:0202C00008959F
:1002C2001F920F920FB60F9211248F9388E18093A1
:1002D200810010926F00109285001092840085B107
:1002E200826085B98F910F900FBE0F901F90189565
:1002F2001F920F920FB60F9211248F939F9389B181
:10030200886090E08095909590910201892B80936E
:1003120002019F918F910F900FBE0F901F90189521
:100322001F920F920FB60F9211248F931092850095
:100332001092840083E080936F008CE180938100AF
:0C0342008F910F900FBE0F901F90189528
:10034E00809102018E7F809302018AE088B98FE24C
:10035E0095E70197F1F700C0000082E088B910928E
:08036E00010110920001089545
:0E037600EC010DD00BD0CE010BD0CE010AD081
:0C038400809102018F7B8093020108959C
:0203900037CE66
:020392000895CC
:020394000895CA
:020396000895C8
:0203980076DE0F
:00000001FF
