:100000000C9434000C9451000C9409010C94510090
:100010000C9451000C94F2000C9451000C9451007B
:100020000C9451000C9451000C9451000C9432012A
:100030000C9451000C9420010C9451000C9451002C
:100040000C9451000C9451000C9451000C945100EC
:100050000C9451000C9451000C9451000C945100DC
:100060000C9451000C94510011241FBECFEFD8E026
:10007000DEBFCDBF11E0A0E0B1E0E8E1F4E002C0F6
:1000800005900D92A230B107D9F721E0A2E0B1E0CE
:1000900001C01D92A430B207E1F70E9477010C94D1
:1000A0000A020C940000809103018B7F809303016E
:1000B000809102018430C1F180910201813041F0D0
:1000C0008AE188B987EA91E60197F1F700C000005C
:1000D00082E188B9E7EAF1E63197F1F700C0000064
:1000E00092E398B9FFE52AEE30E0F150204030402D
:1000F000E1F700C0000088B99FEDE2E2F2E0915024
:10010000E040F040E1F700C0000096E198B92FE52B
:100110003AEE90E0215030409040E1F700C00000FE
:1001200088B984E0809302010895809103018E7F55
:100130008093030180910201813069F08AE188B9DE
:100140002FE58AEE90E0215080409040E1F700C01A
:10015000000082E188B981E08093020108958091D6
:1001600003018F778093030180910201813011F0A8
:100170000E94950080E188B9E7EAF1E63197F1F74E
:1001800000C0000090E398B9FFE52AEE30E0F1509E
:1001900020403040E1F700C0000088B98FE59AEEBA
:1001A000E0E081509040E040E1F700C0000082E1D3
:1001B00088B9FFE728E331E0F15020403040E1F713
:1001C00000C0000093E198B99FE5EAEEF0E091509D
:1001D000E040F040E1F700C0000088B980E880937B
:1001E000020108951F920F920FB60F9211248F9360
:1001F00089B18A65809511F0809303018091000197
:100200008111109200018F910F900FBE0F901F90DF
:1002100018951F920F920FB60F9211248F93109280
:1002200085001092840083E080936F008DE08093BE
:10023000810029988F910F900FBE0F901F901895F5
:100240001F920F920FB60F9211248F9388E0809324
:10025000810010926F00299A8F910F900FBE0F901E
:100260001F9018951F920F920FB60F9211242F9383
:100270003F934F935F936F937F938F939F93AF932E
:10028000BF93EF93FF9388E08093810010926F00FB
:10029000299A809102018038C9F44C9917C0809145
:1002A0000001811113C00E945300FF91EF91BF9193
:1002B000AF919F918F917F916F915F914F913F91FE
:1002C0002F910F900FBE0F901F90189580910201F3
:1002D000843049F4499907C080910001811103C01D
:1002E0000E94AF00E2CF81E080930201DECFF8945C
:1002F0008FEF8BB91AB892EC98B987B985B986E0B7
:1003000084B915BE84E0809369001DBA10926E0016
:1003100010926F001092700010926B0010926C009F
:1003200085EA80936D001092680010BE1092640000
:10033000789410926F0010928500109284008DE8DE
:1003400092E790938900809388001092800088E063
:100350008093810082E08DBB449A189958C0DA9A44
:1003600084E08093680080E88093020182E188B98C
:10037000C2E1D2E313E100E28091030180FD0E941B
:1003800095008091030182FD0E945300809103013A
:1003900085FF33C0809103018F7D8093030180919D
:1003A0000201813011F00E949500C8B987EA91E6F8
:1003B0000197F1F700C00000D8B99FE52AEE80E070
:1003C000915020408040E1F700C00000C8B99FED87
:1003D00022E282E0915020408040E1F700C000001E
:1003E00018B99FE52AEE80E0915020408040E1F767
:1003F00000C00000C8B9009302018091030187FD8D
:100400000E94AF00809103018823E1F3B5CF1092E1
:080410000301A3CFF894FFCF14
:020418000100E1
:00000001FF
