:1000000019C033C0D1C031C030C0B7C02EC02DC060
:100010002CC02BC02AC0F1C028C0DDC026C025C01E
:1000200024C023C022C021C020C01FC01EC01DC0CC
:100030001CC01BC011241FBECFEFD4E0DEBFCDBF5C
:1000400011E0A0E0B1E0E4E9F3E002C005900D9218
:10005000A230B107D9F721E0A2E0B1E001C01D92C2
:10006000A430B207E1F70AD193C1CACF809103014E
:100070008B7F8093030180910201843081F1813074
:1000800041F08AE188B98FE097E20197F1F700C06B
:10009000000082E188B9EFE0F7E23197F1F700C0A4
:1000A000000092E398B9EFE2F5E73197F1F700C06D
:1000B000000088B9FFEB2AED30E0F15020403040DD
:1000C000E1F700C0000096E198B9EFE2F5E731975B
:1000D000F1F700C0000088B984E080930201089520
:1000E000809103018E7F8093030180910201813012
:1000F00051F08AE188B98FE295E70197F1F700C0E6
:10010000000082E188B981E0809302010895809126
:1001100003018F778093030180910201813009F000
:10012000DFDF80E188B9EFE0F7E23197F1F700C057
:10013000000090E398B9EFE2F5E73197F1F700C0DE
:10014000000088B98FE295E70197F1F700C0000041
:1001500082E188B9EFE3FCE93197F1F700C00000D4
:1001600093E198B9EFE2F5E73197F1F700C00000AD
:1001700088B980E88093020108951F920F920FB60C
:100180000F9211248F9389B18860809511F080932C
:100190000301809100018111109200018F910F9055
:1001A0000FBE0F901F9018951F920F920FB60F92CF
:1001B00011248F93109285001092840083E0809325
:1001C0006F008CE08093810029988F910F900FBE73
:1001D0000F901F9018951F920F920FB60F92112437
:1001E0008F9388E08093810010926F00299A8F91FD
:1001F0000F900FBE0F901F9018951F920F920FB681
:100200000F9211242F933F934F935F936F937F939C
:100210008F939F93AF93BF93EF93FF9388E0809367
:10022000810010926F00299A809102018038C1F4F8
:100230004C9920C08091000181111CC017DFFF91F3
:10024000EF91BF91AF919F918F917F916F915F914E
:100250004F913F912F910F900FBE0F901F901895C7
:10026000843041F4499906C080910001811102C097
:100270004EDFE5CF81E080930201E1CFF8948FEF6C
:100280008BB91AB892EC98B987B985B982E084B96C
:1002900015BE84E0809369001DBA10926E00109222
:1002A0006F001092700010926B0010926C0087EF3C
:1002B00080936D001092680010BE109264007894D4
:1002C000449A189962C080E88093020182E188B95B
:1002D000DA9A84E08093680010926F001092850093
:1002E0001092840082ED97EB9093890080938800B0
:1002F0001092800088E08093810082E08DBBC2E193
:10030000D2E313E100E28091030180FDE9DE8091F8
:10031000030182FDABDE8091030185FF2AC08F7D42
:100320008093030180910201813009F0D9DEC8B9C0
:100330008FE097E20197F1F700C00000D8B98FE293
:1003400095E70197F1F700C00000C8B99FEB2AEDCF
:1003500080E0915020408040E1F700C0000018B9D3
:100360008FE295E70197F1F700C00000C8B900934C
:1003700002018091030187FDCADE8091030186FF9F
:10038000C2CF8F7B80930301BECF1092030199CF20
:04039000F894FFCF0F
:02039400010066
:00000001FF
