:100000000C945A000C9477000C9417010C94770010
:100010000C9477000C9400010C9477000C947700FA
:100020000C9477000C9477000C9477000C944001AA
:100030000C9477000C942E010C9477000C947700AC
:100040000C9477000C9477000C9477000C94770054
:100050000C9477000C9477000C9477000C94770044
:100060000C9477000C9477000C9477000C94770034
:100070000C9477000C9477000C9477000C94770024
:100080000C9477000C9477000C9477000C94770014
:100090000C9477000C9477000C9477000C94770004
:1000A0000C9477000C9477000C9477000C947700F4
:1000B0000C94770011241FBECFEFD8E0DEBFCDBF78
:1000C00011E0A0E0B1E0E2E3F4E002C005900D929F
:1000D000A230B107D9F721E0A2E0B1E001C01D9242
:1000E000A430B207E1F70E9485010C9417020C942A
:1000F000000080910201843091F1809102018130F1
:1001000041F08AE188B98FE097E20197F1F700C0EA
:10011000000082E188B9EFE0F7E23197F1F700C023
:10012000000092E398B9EFE2F5E73197F1F700C0EC
:10013000000088B9FFEB2AED30E0F150204030405C
:10014000E1F700C0000096E198B9EFE2F5E73197DA
:10015000F1F700C0000088B984E08093020180912B
:1001600003018B7F80930301089510920301809116
:100170000201813051F08AE188B98FE295E7019759
:10018000F1F700C0000082E188B981E080930201AC
:10019000089580910201813011F00E94B50080E144
:1001A00088B9EFE0F7E23197F1F700C0000090E383
:1001B00098B9EFE2F5E73197F1F700C0000088B990
:1001C0008FE295E70197F1F700C0000082E188B95E
:1001D000EFE3FCE93197F1F700C0000093E198B933
:1001E000EFE2F5E73197F1F700C0000088B980E849
:1001F00080930201809103018F778093030108951A
:100200001F920F920FB60F9211248F9389B18A65B6
:10021000809511F08093030180910001811110926B
:1002200000018F910F900FBE0F901F9018951F9295
:100230000F920FB60F9211248F9310928500109297
:10024000840083E080936F008CE080938100299884
:100250008F910F900FBE0F901F9018951F920F92C5
:100260000FB60F9211248F9388E080938100109233
:100270006F00299A8F910F900FBE0F901F901895C5
:100280001F920F920FB60F9211242F933F934F930B
:100290005F936F937F938F939F93AF93BF93EF93EE
:1002A000FF9388E08093810010926F00299A8091DB
:1002B00002018038C9F44C9917C080910001811166
:1002C00013C00E947900FF91EF91BF91AF919F9170
:1002D0008F917F916F915F914F913F912F910F90EF
:1002E0000FBE0F901F90189580910201843049F441
:1002F000499907C080910001811103C00E94C90083
:10030000E2CF81E080930201DECFF8948FE08EB9D6
:100310001DB88FEF8BB91AB892EC98B987B985B927
:1003200086E084B915BE84E0809369001DBA1092FE
:100330006E0010926F001092700010926B0010927D
:100340006C0085EA80936D001092680010BE1092D8
:10035000640010926500789410926F0010928500EE
:100360001092840082ED97EB90938900809388002F
:100370001092800088E08093810082E08DBB449AD7
:10038000189952C0DA9A84E08093680080E88093DC
:10039000020182E188B9C2E1D2E313E100E2809177
:1003A000030180FD0E94B5008091030182FD0E943F
:1003B00079008091030185FF2DC080910201813079
:1003C00011F00E94B500C8B98FE097E20197F1F7EC
:1003D00000C00000D8B98FE295E70197F1F700C09F
:1003E0000000C8B99FEB2AED80E09150204080408A
:1003F000E1F700C0000018B98FE295E70197F1F727
:1004000000C00000C8B900930201809103018F7DF4
:10041000809303018091030187FD0E94C9008091B0
:1004200003018823E1F3BBCF10920301A9CFF89415
:02043000FFCFFC
:020432000100C7
:00000001FF
